:400000000080002011000000690600006906000008B5044B1A6803F53F5302331A6000F02BFB00BFFA46004010B5054C237833B9044B13B10448AFF300800123237010BD73
:400040005881FF1F0000000074310000084B10B51BB108490848AFF300800848036803B910BD074B002BFBD0BDE81040184700BF000000005C81FF1F74310000C880FF1F98
:400080000000000010B5624B1B78DBB213F01E0F05D0604803F01E0201780A43027003F0200303F0FF04002B00F0AD805A4B1B78DBB2584A1278002A40F0A580574A1370CE
:4000C000413B392B00F29280DFE803F01D909090909090909090909090909090909041769090905F902F9090909090901D909090909090909090909090909090909041766C
:400100009090905F902F464A137805331370454800F06EFF012000F0FDFB0021084600F053FC414800F0E8FB6DE03D4A1378053B13703E4800F05CFF012000F0EBFB002113
:40014000084600F041FC3A4800F0D6FB5BE000F0E7FC013001280ADD00F0E2FC013000EBD07040100138012180B200F0E7FC314800F03EFF012000F0CDFB0021084600F0BA
:4001800023FC2D4800F0B8FB3DE000F0C9FC013040000138012180B200F0D0FC274800F027FF012000F0B6FB0021084600F00CFC234800F0A1FB26E0164B5B780133214AFE
:4001C000134003D5013B63F003030133114A53701D4800F00DFF012000F09CFB0021084600F0F2FB194800F087FB0CE0184800F0FFFE012000F08EFB0021084600F0E4FBB4
:40020000144800F079FB002C7FF43DAF10BD00BF686400407481FF1F486500404A650040CC80FF1F7831000090310000A4310000BC310000D4310000EC31000004320000FE
:4002400020320000030000803832000050320000683200008032000080B55E4800F082FA62B600F04FFC00F0A1FB00F0A7FE012000F050FB584800F03FFB584B5B78032BEC
:4002800000F29A80DFE803F0022F5C7D0022534B5A8022E0524D287802F066F906460F46204602F063FD696802F0B4FD02F06EF900F0CEFE02460B463046394602F0BAF92D
:4002C00002460B463046394602F002F802F074FC444B18550134414B5C80404B5C88B4F57A6FD7D368E000223C4B5A8022E03C4E3578204602F03AFD716802F08BFD02F006
:4003000045F900F0A5FE06460F46284602F02CF932463B4602F08EF90022002302F010FC10B16D00EDB200E000252E4B1D5501342A4B5C80294B5C88B4F57A6FD7D33BE01F
:400340000022264B5A8016E0254B1D786D002648A0FB0430000A02F009FD0646284602F005FD314602F056FD02F0A4FE1D4B185501341A4B5C80194B5C88B4F57A6FE3D390
:400380001AE00022154B5A8011E0154A1278900093FBF0F100FB11315200891A0029B8BF4942521A0F49CA5401330C4A53800B4B5B88B3F57A6FE8D300F036FB4FF47A61AE
:4003C000084800F03FFB00F09DFB4FF47A7000F0A3FD52E785000000943200007481FF1FCC80FF1F8881FF1FD34D6210FEE700BFF0B40022174611E050F82760F3B226F042
:40040000FF0608E001EB420511F812406D78A5550132013BDBB2002BF4D10137152FEBD9F0BC70470A4B1B78DBB203F00701094A11701B09013213700122074B1A70102284
:4004400003F65B131A704422A3F222231A707047CF0100496E5800403D51004008B50A46002102F07EFE08BD38B542F20F72264B1A80192502331D7002331D8018220233CE
:400480001A70022203F27A231A7008224FF040231A70032103F5007319701C4B1B78DBB21B490B701B4B1A8041F25122023B1A8000240CE0184B1B7803F0010343EA4404AF
:4004C00004F003044FF4F07000F0B2FD013D0DB1032CEFD115B90320FFF788FF0F4B4FF480721A8007221A7000220D490A704820023108701A700222033B1A70094A137831
:4005000043F00303137038BD8040004008010049A146004022420040254200400440004006400040A243004008B502F00FFE08BD38B572B6394A137843F004031370002492
:400540000CE0374D630019194A0011462A44084691882858FFF782FF0134E4B2072CF0D900240BE02E49A3001819420088180622416B006BFFF7D8FF0134E4B2002CF1D042
:4005800028494FF09040FFF733FF04212648FFF765FF04212548FFF761FF254A137843F0020313701032137843F002031370214C237843F040032370A2F58632513A13780B
:4005C00043F0100313700A221B491C48FFF7ACFF08221B491B48FFF7A7FF08221A491B48FFF7A2FF08221A491A48FFF79DFF1A4A137843F008031370184D61232B70FFF7DE
:4006000033FF81232B700122154B1A70FFF70AFF0E2221461348FFF787FF38BDE8460040A432000058000048007600400876004003500140A043004018040048C051004016
:4006400024040048125100402C040048225100403404004832510040224300400048004004000840B043004008B502F043FD03680C2B00D1FEE7FEE708B5104E104D16E0B3
:4006800029686B68AC68002204E051F8040B43F8040B0432A242F8D1E868002203E0002143F8041B04328242F9D11035013E002EE6D102F025FDFFF7CFFDFEE7010000007E
:4006C000E844000008B5114A114B1A60114A136843F40073136000230AE0032B03D80E4A52F8231000E00D490D4A42F8231001332F2BF2D90B4B1A780B4B1A70084A0B4B3F
:400700001A60FFF715FF00F029FB08BD0004FA050CED00E014ED00E000000000690600000080FF1FBC760040C080FF1F08ED00E0014B1B681864704708ED00E04001C0B263
:40074000014B1870704700BF00E400E00122014B1A60704700E100E00122014B1A60704780E100E010B50446FFF7F6FF2046FFF7DFFF0720FFF7E2FFFFF7E8FF10BD00BF8E
:4007800010B50C4C237803F03F032370237803F0E103237023784000C0B2184340F020002070012000F0CEFB237803F0DF03237010BD00BF2051004038B505460F4C2378E4
:4007C00043F040032370237803F07F032370002000F0B8FB237803F0E103237023786D00EDB21D4345F020052570012000F0AAFB237803F0DF03237038BD00BF2051004071
:4008000070B5344B1A7802F001021A7032490A7802F0E10242F01E020A7001310A7802F0E1020A7001310A7802F0E1020A701A7802F0BF021A701A7842F080021A704FF47D
:40084000CA76002000F07EFB224D2B7843F020032B70012000F076FB204B1C78E4B22B7803F0DF032B70002000F06CFB04F01004E4B22B7843F020032B70012000F062FB6B
:400880002B7803F0DF032B7014B90A2000F05AFB013E0CB1002ED4D10E4B1A7802F07F021A701A7802F001021A700B4A137803F0E10313700132137803F0E10343F01E03FE
:4008C00013700132137803F0E10343F01E03137070BD00BF20510040225100402151004010B50446FFF78CFF2009FFF765FF04F00F00FFF761FF10BD38B5054600780124F9
:4009000004E0FFF7EDFF285D0134E4B20028F8D138BD00BF10B50446FFF772FF2009FFF72FFF04F00F00FFF72BFF10BD08B5282000F0F2FA0320FFF723FF052000F0ECFA32
:400940000320FFF71DFF0F2000F0E6FA0320FFF717FF012000F0E0FA0220FFF711FF052000F0DAFA0620FFF7D5FF0E20FFF7D2FF2C20FFF7CFFF0820FFF7CCFF0120FFF723
:40098000C9FF0C20FFF7C6FF0320FFF7C3FF052000F0C2FA08BD00BF08B50C20FFF7BAFF0122014B1A7008BD7981FF1F08B5054B5B7823B9FFF7BAFF0122024B5A70FFF74F
:4009C000EBFF08BD7981FF1F08B5032819D8DFE800F002070D1381F08000FFF79BFF08BDA1F14000C0B2FFF795FF08BDA1F16C00C0B2FFF78FFF08BDA1F12C00C0B2FFF7BF
:400A000089FF08BD10B500F041F9064C0121207800F0BEF90121607800F0BAF9002000F05FF910BD7B81FF1F10B5054C207800F0CBF9607800F0C8F900F036F910BD00BF45
:400A40007B81FF1F70B505460E464FF48043020C0121084600F0DEF8094C2070A07801230246314600F036FA45F68332A9B2A07800F044FAA178207800F0E4F970BD00BF53
:400A80007B81FF1F70B505460E464FF48043020C0121084600F0DCF8094C6070E07801230246314600F016FA45F68332A9B2E07800F024FAE178607800F0C4F970BD00BF35
:400AC0007B81FF1F10B500F033F9022000F0FAF8042000F01DF900F0E3F9084CA07000F0DFF9E070064C4FF47A612046FFF7AAFF642104F57A60FFF7C5FF10BD7B81FF1F17
:400B0000E032000008B5054B1B7923B9FFF7DAFF0122024B1A71FFF775FF08BD7B81FF1F014B188880B2704780400040024B187800F00700704700BF8240004070B5054682
:400B40000E46FFF7F3FF0446FFF7EAFFA84256D02B4B1B7803F0010294B900B185B938B9284B1D80284A137803F0BF03137070BD254A137843F040031370224B1D8070BD38
:400B800022B3002321490B7001240F310C7004310B700C390B7803F07F030B701A4B1B7813F0080F00D08DB9194B18800721013B1970164B1B7813F0010FFAD110490B7850
:400BC00003F0FE030B700021104B19700C4B1B7813F0010F0DD00E4B1D800EB1032200E001220A4B1A70094B1B7813F0010FFAD170BD044B1D8002490B7813430B7070BD41
:400C0000A243004080400040824000400140004002400040F0B583B016461F460B4D00242C700194009423460A460146204600F015F93A463146287800F0EAF80221287820
:400C400000F0D4F8287803B0F0BD00BFD480FF1FF0B583B016461F460B4C012525700023019300930A460146284600F0F7F83A463146207800F0CCF80221207800F0B6F812
:400C8000207803B0F0BD00BFD580FF1F054A137843F0080313701032137843F008031370704700BFA8430040054A137803F0F70313701032137803F0F7031370704700BF43
:400CC000A8430040054B1A7802F0FD021A701A7800F0020010431870704700BF2C580040014B1870704700BF835B0040064B1B78C3F3810303F19243063393F83831DBB2CA
:400D0000024A1370704700BF2C5800400B46004008B5064B1A7802F0F3021A701A7800F00C0010431870FFF7E1FF08BD2C58004008B50020074B187001331870064A1378F2
:400D400043F008031370FFF7E3FF0220FFF7BAFF08BD00BF2C5800409F5A00400B4A7F2313708021517007E0DA0002F1804202F5F042013BDBB21370002BF5D1DB0003F101
:400D8000804303F5F04300221A707047D880FF1F172815D831B103010A495A5C42F020025A5405E0030107495A5C02F0DF025A540001044A835C43F00103835400207047CC
:400DC000012070471070004017280BD80001064BC25C02F0FE02C254C25C02F0DF02C25400207047012070471070004017280BD80001064A835C03F0F103490001F00E01C9
:400E00001943815400207047012070471070004041F6FF73994201D14FF4005141F6FF739A4201D14FF40052172808D8C00000F1804000F5EC408180C28000207047012050
:400E4000704700BF172805D8034B03EB0010417200207047012070471070004017281BD810B4C00000F1804404F5EC44D201D2B201F07F01114321709DF804201201D2B2E1
:400E800003F00F03134363709DF8083003F00F03A3700020E07001E00120704710BC704710B500F0CDF80A4B5B78182B0BD9084A1478013B5370E30003F1804303F5F04308
:400EC0001B78137000E0FF2400F0BEF8204610BDD880FF1F10F0800F0CD111F4704F0BD1C00000F1804000F5F04001808270C37000207047012070470120704710F0800F2C
:400F000008D1C00000F1804000F5F0408180C280002070470120704710B5044605E0084B186800F085F8A4F50044B4F5004FF6D8034B586800FB04F000F07AF810BD00BF8E
:400F4000E080FF1F08B5034B1B7A00FB03F000F06FF808BDE080FF1F7222084B1A702022A3F580731A7006225F3B1A70472210331A70002203F5A8731A70704788650040DE
:400F800010B500F05DF804460B4A137843F020031370A2F58072137843F01003137002F20112137843F01003137000F033F8204600F04AF810BD00BF9865004008B5054B63
:400FC0001B7823B9FFF7C8FF0122024B1A70FFF7D7FF08BD8081FF1F034B1B7813F0040FFAD1024B18707047696500404A65004038B5074B1B782BB938BDFFF7EDFF01340E
:40100000A4B201E005460024285D0028F5D138BD8081FF1F054A137843F0020313701032137843F002031370704700BFA24300400230800803D000BF01380046FCD170477C
:40104000EFF3108072B6704780F31088704700BF30B5214A21F00043934287B01BDD1F4A934205DD02460B4601F030F907B030BD02AA00F035F800F0030001281ED0022882
:4010800011D0DDE9042300B3DDE9020100F040FA01F10041EAE7002300930022002300F053FF07B030BD01230093DDE90201DDE9042300F049FF01F10041D7E7DDE9042354
:4010C000DDE9020100F024FAD0E70124DDE90201009400F039FFC9E7FB21E93FFFFFEF7F2DE9F04F944C21F00047A7428FB040F381801446914A0E46974226DC84A3D3E928
:401100000023002940F3A08101F0E0F88C4B80469F42894600F083807FA3D3E9002301F0D5F802460B464046C4E90023494601F0CDF879A3D3E9002301F0C8F80125C4E994
:40114000020128460FB0BDE8F08F7E4A974240F383807D4A974258DC3D15A5F21645A7EB05518B46824601F0FFFC01F0FDF98046894642464B4650465946CDE9088901F0BD
:40118000A5F80022714B01F055FA8B46824601F0EBFC01F0E9F98046894642464B4650465946CDE90A8901F091F80022674B01F041FA00220023CDE90C0101F0A3FC0028CA
:4011C00000F06A81002340464946002201F09AFC002814BF012302235D480221019000912A46214608A800F0B7FA002EC0F24A81054606E0C2E9000100250024C2E902451A
:40120000002528460FB0BDE8F08F02460B4601F05DF80025C4E90201C4E90001F1E740A3D3E9002301F052F83FA3D3E9002306460F4601F04BF802460B463046C4E900238C
:40124000394601F043F838A3D3E9002301F03EF80125C4E90201D4E700F02CFF34A3D3E900238046894601F0E5F90022394B01F02FF801F079FC054601F076F924A3D3E9CA
:401280000023CDE9040101F0D5F902460B464046494601F01BF820A3D3E9002382468B46DDE9040101F0C6F91F2DCDE9020155DC294B6A1E53F822309F424FD002460B46C1
:4012C0005046594601F002F802460B4681468846C4E900234A4643465046594600F0F6FFDDE9022300F0F2FF02460B46002EC4E9022386DA4A4608F1004301F1004184E86D
:401300000C00E160A0606D427BE700BFAFF3008000004054FB21F93F3163621A61B4D03D0000601A61B4D03D7370032E8A19A33B83C8C96D305FE43FFB21E93F7BD9024016
:40134000FB21F93FFB213941FFFFEF7F00007041644300000000E03FE4420000DDE902235046594600F0B2FF3F15C1F30A53FB1A102B81468846C4E90001ABDD58A3D3E982
:401380000023DDE9040101F055F98046894602460B465046594600F099FFCDE9060102460B465046594600F091FF42464B4600F08DFF4DA3D3E9002380468946DDE9040146
:4013C00001F038F942464B4600F080FF02460B46CDE90201DDE9060100F078FF0B4602468846C1F30A517F1A312F8146C4E9002372DD3FA3D3E90023DDE9040101F01AF9D8
:401400008046894602460B46DDE9060100F05EFF02460B4682468B46DDE9060100F056FF42464B4600F052FF33A3D3E9002380468946DDE9040101F0FDF842464B4600F0C2
:4014400045FFCDE9020139E700F042FF2E4B80469F42894622D02AA3D3E9002300F038FF02460B464046C4E90023494600F02EFF23A3D3E9002300F02BFF4FF0FF35C4E9F0
:401480000201BEE66268E36802F1004203F1004345426260E360B4E603239DE610A3D3E9002300F015FF10A3D3E9002306460F4600F00EFF02460B463046C4E90023394611
:4014C00000F004FF08A3D3E9002300F001FF4FF0FF35C4E9020194E6DDE906ABFAE600BF0000601A61B4D03D7370032E8A19A33B0000002E8A19A33BC14920259A837B39CC
:401500003163621A61B4D03DFB21F93F000000002DE9F04F21F00046B6F1795F85B00C4692469B4605466BDA01F01EFB002800F0E7802A4623462846214601F07BF874A378
:40154000D3E900238046894601F074F872A3D3E9002300F0BDFE42464B4601F06BF870A3D3E9002300F0B2FE42464B4601F062F86DA3D3E9002300F0ABFE42464B4601F006
:4015800059F86BA3D3E9002300F0A0FE42464B4601F050F868A3D3E9002300F099FE42464B4601F047F8CDE900010022644B4046494601F03FF8DDE9002306460F4640467E
:4015C000494601F037F85246804689465B462846214601F02FF802460B464046494600F075FE02460B463046394600F06FFE02460B460020534900F069FE05B0BDE8F08F00
:4016000002460B4601F016F841A3D3E900238046894601F00FF840A3D3E9002300F058FE42464B4601F006F83DA3D3E9002300F04DFE42464B4600F0FDFF3BA3D3E90023F6
:4016400000F046FE42464B4600F0F4FF38A3D3E9002300F03BFE42464B4600F0EBFF36A3D3E9002300F034FE4B46424600F0E2FF354BCDE900019E4297DD344B00229E4294
:4016800038DCA6F5001300202E4916461F4600F01DFECDE902010022294B4046494600F0C9FF32463B4600F011FEDDE9002306460F464046494600F0BDFF52468046894679
:4016C0005B462846214600F0B5FF02460B464046494600F0FBFD02460B463046394600F0F5FD02460B46DDE9020100F0EFFD05B0BDE8F08F164B0026CDE90223154FCAE73C
:401700001049002005B0BDE8F08F00BFAFF30080D43888BEE9FAA8BDC4B1B4BD9EEE213EAD529C804F7E923E9015CB19A001FA3E7751C1166CC1563F4C5555555555A53FB7
:401740000000E03F0000F03F3233D33F0000E93F0000E73F0000D23F2DE9F04F794CADF51D7D1F460B93D31E84FB0354DB17C3EBA403A69E744C23EAE37554F826406B1C3C
:4017800026460994A3EB83037C1E0D95029402EBC3032D1B341904900A91089316D42C44013422AEA79F08E057F8250000F0DCFE0135A542E6E9020108D0002DF4DA013565
:4017C00000200021A542E6E90201F6D1099B002B2FDB099B74AADDF8089002EBC30B0DF5E47A029B002BC0F295810B9B0026C3EB090824AB03EBC808049B0027A3F10805F6
:4018000024AB03EBC904F5E9022374E8020100F011FF02460B463046394600F059FD444506460F46EFD1EAE90267DA4509F10109D7D1099B10A91D4603F18043023B9B00A8
:401840001A1D0A440B440F920E939CAB03EBC503002D53E928672BDD9CAB03EBC504A83C0DF13C0A0DF5E47B0022384B3046394600F0E0FE01F078F900F076FE0022344BFF
:401880008046894600F0D6FE02460B463046394600F01CFD01F068F974E802234AF8040F4946404600F014FD5C4506460F46DBD1089C30463946224600F08AFC00224FF034
:4018C0007F5306460F4600F0B5FE00F0F9FB0022204B00F0AFFE02460B463046394600F0F5FC0F46064601F03FF9814600F03CFE02460B463046394600F0E8FC002C0646C0
:401900000F4640F3EE80681E10AB53F82030C4F1180243FA02F101FA02F29B1AC4F1170810AA42F82030894443FA08F8B8F1000F3DDD002D09F1010940F3D3820022144609
:401940000FA911E0ABAAAA2A6C4400000000703E0000704100002040C3F180700BB108600124013295420DDD51F8043F002CF3D0C3F1FF13013203F57F4395420B604FF096
:401980000104F1DC089B002B0DDD012B00F0B180022B08D16A1E10AB53F8223010A9C3F3150341F82230B8F1020F00F08180002200233046394601F0A5F8002800F05B82F0
:4019C000099B05F1FF3B5B4510DC05F1804310AA013B0F9802EB8303002253F80419834242EA0102F9D1002A40F0B180099B10AA013B52F82330002B40F071820E9A01239A
:401A000052F8041901330029FAD0E9186A1C8A420C914BDC0D990B985118DB0001F180410593A79B05440139E80003EB810A24ABD20003EB000B74AB13440193A2F10803C1
:401A4000069007934FF000095AF8040F00F08CFD029BEBE80201002B4FF000064FF000071BDB069B03EB0904079B09EB030824AB1C449844049BA3F10805F5E9022374E80A
:401A8000020100F0D7FD02460B463046394600F01FFC444506460F46EFD1019B09F10809E3E802670193059B9945CDD10C9DCCE632463B460020B04900F008FC06460F464F
:401AC000002C3FF474AF089A0020AB4900F080FB02460B463046394600F0F8FB06460F4665E710D16B1E10AA52F823304FEAE3581CE76A1E10AB53F8223010A9C3F3160345
:401B000041F822304FE700229C4B01F019F858B980464CE700260027EAE90267DA4509F101097FF45EAE84E6002D09F10109C8BF4FF002083FF702AF32463B4600208E4962
:401B400000F0C4FB4FF0020806460F462FE7089A10AB53F82B30183ACDF81490CDF8048008926BB90BF18043013B10A901EB830353F804190BF1FF3B183A0029F8D0089250
:401B8000089A00207C4900F023FBBBF1000F04460D46C0F2B6814FEACB030DF5E87810AA02EB8B0608EB03090493043609F1080756F8040D00F0D8FC22462B4600F03AFDB2
:401BC000002267E902016E4B2046294600F032FDB84504460D46EBD14B46CDF818B09B460DF5987ACDF808A0DDF824A04FF00009BAF1000FC0F226815DA3D3E90023DFF843
:401C000084815D4600260027002403E0A14510DBF8E90223F5E8020100F00CFD02460B463046394600F054FB0134A24506460F46ECDA029BABF1080B03EBC903C3E900678F
:401C400072AB5B4509F10109D2D1A69BDDF818B0DDF808A0032B00F28380DFE813F0D100950095000400BBF1000F40F35481049BCDF808B053449846D3E90067D34658E9E8
:401C8000029A32463B464846514600F021FB04460D4602460B464846514600F017FB32463B4600F015FBC8E9000168E90245C34526462F46E3D1DA46DDF808B0BBF1010FB8
:401CC00040F32981049B0DF59C7B53449846D3E90067994659E902343046CDE902341A463946234600F0F4FA04460D4602460B46DDE9020100F0EAFA32463B4600F0E8FA3A
:401D0000C9E9000169E90245CB4526462F46E1D100231D4608F1080850AC184678E90223294600F0D5FA444503460D46F5D1019A002A00F0D880DAF80440DAF80C200A9F62
:401D4000DAF80010DAF8080005F1004504F1004402F100427D613B617C60FA603960B860059B03F007000DF51D7DBDE8F08F00BF00000040FB21F93F0000F03F0000E03FA2
:401D80000000703E8044000000242146049D0835554475E90223204600F09AFA55450446F7D1019B002B50D00A9F01F100450B46DAE9000187E83000224600F087FABBF196
:401DC000000F03460D460DDD01241846FAE90223294600F07DFA0134A34503460D46F4DA019A0AB105F10045184629460A9BC3E90201059B03F007000DF51D7DBDE8F08F5A
:401E000000231C46049A0832924418467AE90223214600F05DFA0BF1FF3BBBF1FF3F03460C46F2D1019A0AB104F10044184621460A9BC3E90001059B03F007000DF51D7D81
:401E4000BDE8F08F00260027F3E626460F4622460A9C0B46DAE90001C4E9006700F036FABBF1000F03460D46AEDC184629460A9BC3E90201BDE7089B30465A423946CDF861
:401E80001490CDF8048000F0A3F900222C4B06460F4600F055FE002840D00022294B3046394600F0C7FB00F05FFE044600F05CFB0022234B00F0BEFB0B4602463946304612
:401EC00000F004FA00F050FE089B05F1010B1833089310AB43F8250043F82B4050E6012393E500244EE51846DAE90067DAE9022329460A9DC5E90067C5E90401C5E9022320
:401F00002EE7A69B032B3FF62BAFDFE803F0151010020DF5987A00231D4608E73046394600F022FE10ABAB4643F8250028E6002421460DF5987A34E700231C4672E700BF1E
:401F4000000070410000703E2DE9F04F21F00046B6F1795F85B00C4690469946054604DA00F002FE002800F085802A4623462846214600F05FFB06460F4602460B462846C5
:401F8000214600F057FB3EA3D3E9002382468B463046394600F04EFB3BA3D3E9002300F095F932463B4600F045FB39A3D3E9002300F08EF932463B4600F03CFB36A3D3E9A6
:401FC000002300F083F932463B4600F033FB34A3D3E9002300F07CF90E9BCDE900019BB30022334B4046494600F024FBDDE90023CDE902015046594600F01CFB02460B4637
:40200000DDE9020100F062F932463B4600F012FB42464B4600F05AF923A3D3E9002306460F465046594600F005FB02460B463046394600F04DF902460B462846214600F0AD
:4020400045F905B0BDE8F08F02460B463046394600F0F0FA14A3D3E9002300F037F952465B4600F0E7FA2A46234600F031F905B0BDE8F08F2846214605B0BDE8F08F00BFE8
:402080007CD5CF5A3AD9E53DEB9C2B8AE6E55A3E7DFEB157E31DC73ED561C119A0012A3FA6F810111111813F495555555555C53F0000E03F21F00041704700BF00000000B2
:4020C000C1F30A522DE9F843A2F2FF36132E0B4604460D46884607461CDC002E3FDB3A4A864642FA06F901EA0902024317D034A3D3E9002300F0ECF80022002300F02AFD99
:4021000020B1002D40DB28EA0905002738462946BDE8F883332E06DDB6F5806F2FD020461946BDE8F883A2F213424FF0FF3929FA02F910EA090FF2D021A3D3E9002300F08B
:40214000C7F80022002300F005FD0028DED0002D20DB454627EA090738462946D8E718A3D3E9002300F0B4F80022002300F0F2FC0028CBD0002D18DB00273D46C6E7024638
:402180000B4600F0A5F8CCE74FF4801343FA06F6B044B8E7142E10D00123C6F1340603FA06F6371928BF9844D3E725F00042074B224318BF1D460027A8E705F10108C8E743
:4021C0009C7500883CE4377EFFFF0F000000F0BFF8B5C1F30A5604460D460B46174606BB21F00043034325D000222F4B00F022FA2E4A044697420D460B462ADBC1F30A5659
:40220000363E40F2FE723E44964228DC002E12DD23F0FF4323F4E00343EA065520462946F8BD40F2FF729642EBD102460B4600F04FF8F8BDF8BD16F1350F1DDA4CF2503338
:402240009F420CDC14A1D1E9000122462B4600F031F811A3D3E9002300F0ECF9F8BD22460FA1D1E900012B4600F024F80CA3D3E9002300F0DFF9F8BD23F0FF4323F4E0036C
:40228000363643EA0655204629460022084B00F0D1F9F8BDAFF3008059F3F8C21F6EA5019C7500883CE4377E00005043B03CFFFF0000903C03F0004321F0004242EA0301A6
:4022C000704700BF81F0004102E000BF83F0004330B54FEA41044FEA430594EA050F08BF90EA020F1FBF54EA000C55EA020C7FEA645C7FEA655C00F0E2804FEA5454D4EBDD
:402300005555B8BF6D420CDD2C4480EA020281EA030382EA000083EA010180EA020281EA0303362D88BF30BD11F0004F4FEA01314FF4801C4CEA113102D0404261EB410150
:4023400013F0004F4FEA03334CEA133302D0524263EB430394EA050F00F0A780A4F10104D5F1200E0DDB02FA0EFC22FA05F2801841F1000103FA0EF2801843FA05F35941BF
:402380000EE0A5F120050EF1200E012A03FA0EFC28BF4CF0020C43FA05F3C01851EBE37101F0004507D54FF0000EDCF1000C7EEB00006EEB0101B1F5801F1BD3B1F5001F53
:4023C0000CD349085FEA30004FEA3C0C04F101044FEA445212F5800F80F09A80BCF1004F08BF5FEA500C50F1000041EB045141EA050130BD5FEA4C0C404141EB010111F42D
:40240000801FA4F10104E9D191F0000F04BF01460020B1FA81F308BF2033A3F10B03B3F120020CDA0C3208DD02F1140CC2F10C0201FA0CF021FA02F10CE002F11402D8BFE0
:40244000C2F1200C01FA02F120FA0CFCDCBF41EA0C019040E41AA2BF01EB0451294330BD6FEA04041F3C1CDA0C340EDC04F11404C4F1200220FA04F001FA02F340EA0300E6
:4024800021FA04F345EA030130BDC4F10C04C4F1200220FA02F001FA04F340EA0300294630BD21FA04F0294630BD94F0000F83F4801306BF81F480110134013D4EE77FEAE3
:4024C000645C18BF7FEA655C29D094EA050F08BF90EA020F05D054EA000C04BF1946104630BD91EA030F1EBF0021002030BD5FEA545C05D14000494128BF41F0004130BD43
:4025000014F580043CBF01F5801130BD01F0004545F0FE4141F470014FF0000030BD7FEA645C1ABF194610467FEA655C1CBF0B46024650EA013406BF52EA033591EA030F99
:4025400041F4002130BD00BF90F0000F04BF0021704730B54FF4806404F132044FF000054FF0000150E700BF90F0000F04BF0021704730B54FF4806404F1320410F00045D8
:4025800048BF40424FF000013EE700BF42004FEAE2014FEA31014FEA02701FBF12F07F4393F07F4F81F06051704792F0000F14BF93F07F4F704730B54FF4607401F0004590
:4025C00021F0004120E700BF50EA010208BF704730B54FF000050AE050EA010208BF704730B511F0004502D5404261EB41014FF4806404F132045FEA915C3FF4DCAE4FF0A4
:4026000003025FEADC0C18BF03325FEADC0C18BF033202EBDC02C2F1200300FA03FC20FA02F001FA03FE40EA0E0021FA02F11444C1E600BF70B54FF0FF0C4CF4E06C1CEA74
:4026400011541DBF1CEA135594EA0C0F95EA0C0F00F0DEF82C4481EA030621EA4C5123EA4C5350EA013518BF52EA033541F4801143F4801338D0A0FB02CE4FF00005E1FB9C
:4026800002E506F00042E0FB03E54FF00006E1FB03569CF0000F18BF4EF0010EA4F1FF04B6F5007F64F5407404D25FEA4E0E6D4146EB060642EAC62141EA55514FEAC520C8
:4026C00040EA5E504FEACE2EB4F1FD0C88BFBCF5E06F1ED8BEF1004F08BF5FEA500E50F1000041EB045170BD06F0004646EA010140EA020081EA0301B4EB5C04C2BFD4EB3F
:402700000C0541EA045170BD41F480114FF0000E013C00F3AB8014F1360FDEBF002001F0004170BDC4F10004203C35DA0C341BDC04F11404C4F1200500FA05F320FA04F0C5
:4027400001FA05F240EA020001F0004221F0004110EBD37021FA04F642EB06015EEA430E08BF20EAD37070BDC4F10C04C4F1200500FA04F320FA05F001FA04F240EA020099
:4027800001F0004110EBD37041F100015EEA430E08BF20EAD37070BDC4F1200500FA05F24EEA020E20FA04F301FA05F243EA020321FA04F001F0004121FA04F220EA0200F6
:4027C00000EBD3705EEA430E08BF20EAD37070BD94F0000F0FD101F00046400041EB010111F4801F08BF013CF7D041EA060195F0000F18BF704703F00046520043EB030337
:4028000013F4801F08BF013DF7D043EA0603704794EA0C0F0CEA135518BF95EA0C0F0CD050EA410618BF52EA4306D1D181EA030101F000414FF0000070BD50EA410606BF23
:402840001046194652EA430619D094EA0C0F02D150EA013613D195EA0C0F05D152EA03361CBF104619460AD181EA030101F0004141F0FE4141F470014FF0000070BD41F0D0
:40288000FE4141F4780170BD70B54FF0FF0C4CF4E06C1CEA11541DBF1CEA135594EA0C0F95EA0C0F00F0A7F8A4EB050481EA030E52EA03354FEA013100F088804FEA033332
:4028C0004FF0805545EA131343EA12634FEA022245EA111545EA10654FEA00260EF000419D4208BF964244F1FD0404F5407402D25B084FEA3202B61A65EB03055B084FEA10
:4029000032024FF480104FF4002CB6EB020E75EB030E22BFB61A754640EA0C005B084FEA3202B6EB020E75EB030E22BFB61A754640EA5C005B084FEA3202B6EB020E75EB98
:40294000030E22BFB61A754640EA9C005B084FEA3202B6EB020E75EB030E22BFB61A754640EADC0055EA060E18D04FEA051545EA16754FEA06164FEAC30343EA52734FEAE9
:40298000C2025FEA1C1CC0D111F4801F0BD141EA00014FF000004FF0004CB6E711F4801F04BF01430020B4F1FD0C88BFBCF5E06F3FF6AFAEB5EB030C04BFB6EB020C5FEA72
:4029C000500C50F1000041EB045170BD0EF0004E4EEA113114EB5C04C2BFD4EB0C0541EA045170BD41F480114FF0000E013C90E645EA060E8DE60CEA135594EA0C0F08BF2F
:402A000095EA0C0F3FF43BAF94EA0C0F0AD150EA01347FF434AF95EA0C0F7FF425AF104619462CE795EA0C0F06D152EA03353FF4FDAE1046194622E750EA410618BF52EAE8
:402A400043067FF4C5AE50EA41047FF40DAF52EA43057FF4EBAE12E74FF0FF3C06E000BF4FF0010C02E000BF4FF0010C4DF804CD4FEA410C7FEA6C5C4FEA430C18BF7FEA03
:402A80006C5C1BD001B050EA410C0CBF52EA430C91EA030F02BF90EA020F0020704710F1000F91EA030F58BF994208BF90422CBFD8176FEAE37040F0010070474FEA410C09
:402AC0007FEA6C5C02D150EA013C07D14FEA430C7FEA6C5CD6D152EA033CD3D05DF8040B704700BF8446104662468C461946634600E000BF01B5FFF7B7FF002848BF10F158
:402B0000000F01BD4DF808EDFFF7F4FF0CBF012000205DF808FB00BF4DF808EDFFF7EAFF34BF012000205DF808FB00BF4DF808EDFFF7E0FF94BF012000205DF808FB00BF64
:402B40004DF808EDFFF7CEFF94BF012000205DF808FB00BF4DF808EDFFF7C4FF34BF012000205DF808FB00BF4FEA410212F5001215D211D56FF47873B3EB625212D94FEA49
:402B8000C12343F0004343EA505311F0004F23FA02F018BF404270474FF00000704750EA013005D111F0004008BF6FF0004070474FF00000704700BF4A0011D212F50012EC
:402BC00011D20DD56FF47873B3EB62520ED44FEAC12343F0004343EA505323FA02F070474FF00000704750EA013002D14FF0FF3070474FF00000704780F0004002E000BFC5
:402C000081F0004142001FBF5FEA410392EA030F7FEA226C7FEA236C6AD04FEA1262D2EB1363C1BFD218414048404140B8BF5B42192B88BF704710F0004F40F4000020F0C1
:402C40007F4018BF404211F0004F41F4000121F07F4118BF494292EA030F3FD0A2F1010241FA03FC10EB0C00C3F1200301FA03F100F0004302D5494260EB4000B0F5000F75
:402C800013D3B0F1807F06D340084FEA310102F10102FE2A51D2B1F1004F40EBC25008BF20F0010040EA03007047490040EB000010F4000FA2F10102EDD1B0FA80FCACF139
:402CC000080CB2EB0C0200FA0CF0AABF00EBC25052421843BCBFD0401843704792F0000F81F4000106BF80F400000132013BB5E74FEA41037FEA226C18BF7FEA236C21D0AE
:402D000092EA030F04D092F0000F08BF0846704790EA010F1CBF0020704712F07F4F04D1400028BF40F00040704712F100723CBF00F50000704700F0004343F0FE4040F4B1
:402D4000000070477FEA226216BF08467FEA23630146420206BF5FEA412390EA010F40F4800070474FF0000304E000BF10F0004348BF40425FEA000C08BF704743F096431B
:402D800001464FF000001CE050EA010208BF70474FF000030AE000BF50EA010208BF704711F0004302D5404261EB41015FEA010C02BF84460146002043F0B64308BFA3F136
:402DC0008053A3F50003BCFA8CF2083AA3EBC25310DB01FA02FC634400FA02FCC2F12002BCF1004F20FA02F243EB020008BF20F00100704702F1200201FA02FCC2F1200248
:402E000050EA4C0021FA02F243EB020008BF20EADC7070474FF0FF0C1CEAD0521EBF1CEAD15392EA0C0F93EA0C0F6FD01A4480EA010C400218BF5FEA41211ED04FF00063E9
:402E400043EA501043EA5111A0FB01310CF00040B1F5000F3EBF490041EAD3715B0040EA010062F17F02FD2A1DD8B3F1004F40EBC25008BF20F00100704790F0000F0CF003
:402E8000004C08BF49024CEA502040EA51207F3AC2BFD2F1FF0340EAC250704740F400004FF00003013A5DDC12F1190FDCBF00F000407047C2F10002410021FA02F1C2F133
:402EC000200200FA02FC5FEA310040F1000053EA4C0308BF20EADC70704792F0000F00F0004C02BF400010F4000F013AF9D040EA0C0093F0000F01F0004C02BF490011F4B4
:402F0000000F013BF9D041EA0C018FE70CEAD15392EA0C0F18BF93EA0C0F0AD030F0004C18BF31F0004CD8D180EA010000F00040704790F0000F17BF90F0004F084691F027
:402F4000000F91F0004F14D092EA0C0F01D142020FD193EA0C0F03D14B0218BF084608D180EA010000F0004040F0FE4040F40000704740F0FE4040F4400070474FF0FF0C73
:402F80001CEAD0521EBF1CEAD15392EA0C0F93EA0C0F69D0A2EB030280EA010C49024FEA402037D04FF0805343EA111143EA10130CF000408B4238BF5B0042F17D024FF485
:402FC000000C8B4224BF5B1A40EA0C00B3EB510F24BFA3EB510340EA5C00B3EB910F24BFA3EB910340EA9C00B3EBD10F24BFA3EBD10340EADC001B0118BF5FEA1C1CE0D12A
:40300000FD2A3FF650AF8B4240EBC25008BF20F0010070470CF0004C4CEA50207F32C2BFD2F1FF0340EAC250704740F400004FF00003013A37E792F0000F00F0004C02BF67
:40304000400010F4000F013AF9D040EA0C0093F0000F01F0004C02BF490011F4000F013BF9D041EA0C0195E70CEAD15392EA0C0F08D142027FF47DAF93EA0C0F7FF470AF86
:40308000084676E793EA0C0F04D14B023FF44CAF08466EE730F0004C18BF31F0004CCAD130F000427FF45CAF31F000437FF43CAF5FE700BF42000ED2B2F1FE4F0BD34FF0B9
:4030C0009E03B3EB126209D44FEA002343F0004323FA02F070474FF00000704712F1610F01D1420202D14FF0FF3070474FF00000704700BF014B1868704700BF5081FF1F4B
:403100000E4B70B51E460E4C0025E41AA410A54204D056F8253098470135F8E701F0D2F9084B094C1E46E41AA4100025A54204D056F8253098470135F8E770BDD0440000F8
:40314000D0440000D0440000D844000010B5431E0A44914204D011F8014B03F8014FF8E710BD03460244934202D003F8011BFAE77047000000000000416D706C697475647F
:403180002061756D656E746164610D0A00000000416D706C697475642061756D656E746164610000416D706C697475642064656372656D656E746164610D0A00416D706C3A
:4031C000697475642064656372656D656E746164610000004672656375656E6369612061756D656E746164610D0A00004672656375656E6369612061756D656E746164617B
:40320000000000004672656375656E6369612064656372656D656E746164610D0A0000004672656375656E6369612064656372656D656E74616461005469706F20646520EE
:403240006F6E64612063616D626961646F0D0A005469706F206465206F6E64612063616D626961646F000000436F6D616E646F20646573636F6E6F6369646F0D0A0000002C
:40328000436F6D616E646F20646573636F6E6F6369646F004269656E76656E69646F212121000000005100401000405100403000F051004010000000014000100014014064
:4032C000000800400140000A004C01400002005001402000605200401004004806000000808080808080818181818182828282828383838383848484848485858585858656
:40330000868686868787878787888888888889898989898A8A8A8A8A8A8B8B8B8B8B8C8C8C8C8C8D8D8D8D8D8E8E8E8E8E8F8F8F8F8F90909090909191919191929292928F
:4033400092929393939393949494949495959595959696969696979797979798989898989899999999999A9A9A9A9A9B9B9B9B9B9C9C9C9C9C9C9D9D9D9D9D9E9E9E9E9E37
:403380009F9F9F9F9FA0A0A0A0A0A0A1A1A1A1A1A2A2A2A2A2A3A3A3A3A3A4A4A4A4A4A4A5A5A5A5A5A6A6A6A6A6A7A7A7A7A7A7A8A8A8A8A8A9A9A9A9A9A9AAAAAAAAAAEB
:4033C000ABABABABABACACACACACACADADADADADAEAEAEAEAEAEAFAFAFAFAFB0B0B0B0B0B0B1B1B1B1B1B2B2B2B2B2B2B3B3B3B3B3B3B4B4B4B4B4B5B5B5B5B5B5B6B6B6B7
:40340000B6B6B6B7B7B7B7B7B8B8B8B8B8B8B9B9B9B9B9B9BABABABABABBBBBBBBBBBBBCBCBCBCBCBCBDBDBDBDBDBDBEBEBEBEBEBEBFBFBFBFBFBFC0C0C0C0C0C0C1C1C1A6
:40344000C1C1C1C2C2C2C2C2C2C3C3C3C3C3C3C4C4C4C4C4C4C5C5C5C5C5C5C6C6C6C6C6C6C7C7C7C7C7C7C8C8C8C8C8C8C8C9C9C9C9C9C9CACACACACACACBCBCBCBCBCBBB
:40348000CBCCCCCCCCCCCCCDCDCDCDCDCDCECECECECECECECFCFCFCFCFCFCFD0D0D0D0D0D0D1D1D1D1D1D1D1D2D2D2D2D2D2D2D3D3D3D3D3D3D3D4D4D4D4D4D4D4D5D5D5FB
:4034C000D5D5D5D5D6D6D6D6D6D6D6D7D7D7D7D7D7D7D8D8D8D8D8D8D8D9D9D9D9D9D9D9DADADADADADADADADBDBDBDBDBDBDBDCDCDCDCDCDCDCDCDDDDDDDDDDDDDDDEDE72
:40350000DEDEDEDEDEDEDFDFDFDFDFDFDFDFE0E0E0E0E0E0E0E0E1E1E1E1E1E1E1E1E2E2E2E2E2E2E2E2E3E3E3E3E3E3E3E3E3E4E4E4E4E4E4E4E4E5E5E5E5E5E5E5E5E51F
:40354000E6E6E6E6E6E6E6E6E6E7E7E7E7E7E7E7E7E7E8E8E8E8E8E8E8E8E8E9E9E9E9E9E9E9E9E9E9EAEAEAEAEAEAEAEAEAEAEBEBEBEBEBEBEBEBEBEBECECECECECECEC0E
:40358000ECECECEDEDEDEDEDEDEDEDEDEDEEEEEEEEEEEEEEEEEEEEEEEFEFEFEFEFEFEFEFEFEFEFEFF0F0F0F0F0F0F0F0F0F0F0F1F1F1F1F1F1F1F1F1F1F1F1F2F2F2F2F241
:4035C000F2F2F2F2F2F2F2F2F3F3F3F3F3F3F3F3F3F3F3F3F3F4F4F4F4F4F4F4F4F4F4F4F4F4F4F4F5F5F5F5F5F5F5F5F5F5F5F5F5F5F6F6F6F6F6F6F6F6F6F6F6F6F6F6BE
:40360000F6F6F7F7F7F7F7F7F7F7F7F7F7F7F7F7F7F7F7F7F8F8F8F8F8F8F8F8F8F8F8F8F8F8F8F8F8F8F8F9F9F9F9F9F9F9F9F9F9F9F9F9F9F9F9F9F9F9F9F9F9FAFAFA84
:40364000FAFAFAFAFAFAFAFAFAFAFAFAFAFAFAFAFAFAFAFAFAFAFBFBFBFBFBFBFBFBFBFBFBFBFBFBFBFBFBFBFBFBFBFBFBFBFBFBFBFBFBFBFBFBFBFBFCFCFCFCFCFCFCFC98
:40368000FCFCFCFCFCFCFCFCFCFCFCFCFCFCFCFCFCFCFCFCFCFCFCFCFCFCFCFCFCFCFCFCFCFCFCFCFCFCFCFCFCFCFCFCFCFCFCFCFCFCFCFCFCFCFCFCFCFCFCFCFCFCFCFC0A
:4036C000FCFCFCFCFCFCFCFCFCFCFCFCFCFCFCFCFCFCFCFCFCFCFCFCFCFCFCFCFCFCFCFCFCFCFCFCFCFCFCFCFCFCFCFCFCFCFCFCFCFCFCFCFCFCFCFCFCFCFCFCFCFCFCFCCA
:40370000FCFCFCFCFCFCFCFCFCFCFCFCFCFCFCFCFCFCFCFCFCFCFCFCFCFBFBFBFBFBFBFBFBFBFBFBFBFBFBFBFBFBFBFBFBFBFBFBFBFBFBFBFBFBFBFBFBFBFBFAFAFAFAFAB5
:40374000FAFAFAFAFAFAFAFAFAFAFAFAFAFAFAFAFAFAFAFAF9F9F9F9F9F9F9F9F9F9F9F9F9F9F9F9F9F9F9F9F9F9F8F8F8F8F8F8F8F8F8F8F8F8F8F8F8F8F8F8F8F7F7F70E
:40378000F7F7F7F7F7F7F7F7F7F7F7F7F7F7F7F6F6F6F6F6F6F6F6F6F6F6F6F6F6F6F6F5F5F5F5F5F5F5F5F5F5F5F5F5F5F4F4F4F4F4F4F4F4F4F4F4F4F4F4F4F3F3F3F3B2
:4037C000F3F3F3F3F3F3F3F3F3F2F2F2F2F2F2F2F2F2F2F2F2F2F1F1F1F1F1F1F1F1F1F1F1F1F0F0F0F0F0F0F0F0F0F0F0EFEFEFEFEFEFEFEFEFEFEFEFEEEEEEEEEEEEEEA2
:40380000EEEEEEEEEDEDEDEDEDEDEDEDEDEDECECECECECECECECECECEBEBEBEBEBEBEBEBEBEBEAEAEAEAEAEAEAEAEAEAE9E9E9E9E9E9E9E9E9E9E8E8E8E8E8E8E8E8E8E7DB
:40384000E7E7E7E7E7E7E7E7E6E6E6E6E6E6E6E6E6E5E5E5E5E5E5E5E5E5E4E4E4E4E4E4E4E4E3E3E3E3E3E3E3E3E3E2E2E2E2E2E2E2E2E1E1E1E1E1E1E1E1E0E0E0E0E05A
:40388000E0E0E0DFDFDFDFDFDFDFDFDEDEDEDEDEDEDEDEDDDDDDDDDDDDDDDCDCDCDCDCDCDCDCDBDBDBDBDBDBDBDADADADADADADADAD9D9D9D9D9D9D9D8D8D8D8D8D8D8D71A
:4038C000D7D7D7D7D7D7D6D6D6D6D6D6D6D5D5D5D5D5D5D5D4D4D4D4D4D4D4D3D3D3D3D3D3D3D2D2D2D2D2D2D2D1D1D1D1D1D1D1D0D0D0D0D0D0CFCFCFCFCFCFCFCECECE18
:40390000CECECECECDCDCDCDCDCDCCCCCCCCCCCCCBCBCBCBCBCBCBCACACACACACAC9C9C9C9C9C9C8C8C8C8C8C8C8C7C7C7C7C7C7C6C6C6C6C6C6C5C5C5C5C5C5C4C4C4C446
:40394000C4C4C3C3C3C3C3C3C2C2C2C2C2C2C1C1C1C1C1C1C0C0C0C0C0C0BFBFBFBFBFBFBEBEBEBEBEBEBDBDBDBDBDBDBCBCBCBCBCBCBBBBBBBBBBBBBABABABABAB9B9B9A8
:40398000B9B9B9B8B8B8B8B8B8B7B7B7B7B7B6B6B6B6B6B6B5B5B5B5B5B5B4B4B4B4B4B3B3B3B3B3B3B2B2B2B2B2B2B1B1B1B1B1B0B0B0B0B0B0AFAFAFAFAFAEAEAEAEAE2F
:4039C000AEADADADADADACACACACACACABABABABABAAAAAAAAAAA9A9A9A9A9A9A8A8A8A8A8A7A7A7A7A7A7A6A6A6A6A6A5A5A5A5A5A4A4A4A4A4A4A3A3A3A3A3A2A2A2A2D9
:403A0000A2A1A1A1A1A1A0A0A0A0A0A09F9F9F9F9F9E9E9E9E9E9D9D9D9D9D9C9C9C9C9C9C9B9B9B9B9B9A9A9A9A9A9999999999989898989898979797979796969696969E
:403A4000959595959594949494949393939393929292929292919191919190909090908F8F8F8F8F8E8E8E8E8E8D8D8D8D8D8C8C8C8C8C8B8B8B8B8B8A8A8A8A8A8A898976
:403A8000898989888888888887878787878686868686858585858584848484848383838383828282828281818181818080808080807F7F7F7F7F7E7E7E7E7E7D7D7D7D7D55
:403AC0007C7C7C7C7C7B7B7B7B7B7A7A7A7A7A797979797978787878787777777777767676767675757575757574747474747373737373727272727271717171717070703B
:403B000070706F6F6F6F6F6E6E6E6E6E6D6D6D6D6D6D6C6C6C6C6C6B6B6B6B6B6A6A6A6A6A6969696969686868686867676767676766666666666565656565646464646417
:403B40006363636363636262626262616161616160606060605F5F5F5F5F5F5E5E5E5E5E5D5D5D5D5D5C5C5C5C5C5B5B5B5B5B5B5A5A5A5A5A5959595959585858585858E6
:403B8000575757575756565656565655555555555454545454535353535353525252525251515151515150505050504F4F4F4F4F4F4E4E4E4E4E4D4D4D4D4D4D4C4C4C4CA1
:403BC0004C4C4B4B4B4B4B4A4A4A4A4A4A4949494949494848484848474747474747464646464646454545454544444444444443434343434342424242424241414141413A
:403C0000414040404040403F3F3F3F3F3F3E3E3E3E3E3E3D3D3D3D3D3D3C3C3C3C3C3C3B3B3B3B3B3B3A3A3A3A3A3A393939393939383838383838373737373737373636AE
:403C4000363636363535353535353434343434343433333333333332323232323231313131313131303030303030302F2F2F2F2F2F2E2E2E2E2E2E2E2D2D2D2D2D2D2D2CFA
:403C80002C2C2C2C2C2C2B2B2B2B2B2B2B2A2A2A2A2A2A2A292929292929292828282828282827272727272727262626262626262525252525252525242424242424242310
:403CC0002323232323232322222222222222212121212121212120202020202020201F1F1F1F1F1F1F1F1E1E1E1E1E1E1E1E1D1D1D1D1D1D1D1D1C1C1C1C1C1C1C1C1C1BF2
:403D00001B1B1B1B1B1B1B1A1A1A1A1A1A1A1A1A19191919191919191918181818181818181817171717171717171716161616161616161616151515151515151515151492
:403D4000141414141414141414131313131313131313131212121212121212121211111111111111111111111010101010101010101010100F0F0F0F0F0F0F0F0F0F0F0EEF
:403D80000E0E0E0E0E0E0E0E0E0E0E0D0D0D0D0D0D0D0D0D0D0D0D0D0C0C0C0C0C0C0C0C0C0C0C0C0C0B0B0B0B0B0B0B0B0B0B0B0B0B0B0B0A0A0A0A0A0A0A0A0A0A0A0A07
:403DC0000A0A0909090909090909090909090909090908080808080808080808080808080808080807070707070707070707070707070707070707060606060606060606D4
:403E0000060606060606060606060606060505050505050505050505050505050505050505050505050504040404040404040404040404040404040404040404040404044F
:403E4000040404040404040403030303030303030303030303030303030303030303030303030303030303030303030303030303030303030303030303030303030303037A
:403E80000303030303030303030303030303030303030303030303030303030303030303030303030303030303030303030303030303030303030303030303030303030342
:403EC00003030303030303030303030303030303030303030303030303030303030303030303030303030303030404040404040404040404040404040404040404040404EB
:403F0000040404040404040404040405050505050505050505050505050505050505050505050505060606060606060606060606060606060606060606060707070707072A
:403F400007070707070707070707070707080808080808080808080808080808080808090909090909090909090909090909090A0A0A0A0A0A0A0A0A0A0A0A0A0A0B0B0B19
:403F80000B0B0B0B0B0B0B0B0B0B0B0B0C0C0C0C0C0C0C0C0C0C0C0C0C0D0D0D0D0D0D0D0D0D0D0D0D0D0E0E0E0E0E0E0E0E0E0E0E0E0F0F0F0F0F0F0F0F0F0F0F101010BB
:403FC0001010101010101010101111111111111111111111121212121212121212121313131313131313131314141414141414141414151515151515151515151616161612
:404000001616161616161717171717171717171818181818181818181919191919191919191A1A1A1A1A1A1A1A1A1B1B1B1B1B1B1B1B1C1C1C1C1C1C1C1C1C1D1D1D1D1D25
:404040001D1D1D1E1E1E1E1E1E1E1E1F1F1F1F1F1F1F1F202020202020202021212121212121212222222222222223232323232323232424242424242425252525252525F4
:4040800025262626262626262727272727272728282828282828292929292929292A2A2A2A2A2A2A2B2B2B2B2B2B2B2C2C2C2C2C2C2C2D2D2D2D2D2D2D2E2E2E2E2E2E2E85
:4040C0002F2F2F2F2F2F30303030303030313131313131313232323232323333333333333434343434343435353535353536363636363637373737373737383838383838E2
:404100003939393939393A3A3A3A3A3A3B3B3B3B3B3B3C3C3C3C3C3C3D3D3D3D3D3D3E3E3E3E3E3E3F3F3F3F3F3F4040404040404141414141414242424242424343434309
:404140004343444444444444454545454546464646464647474747474748484848484949494949494A4A4A4A4A4A4B4B4B4B4B4C4C4C4C4C4C4D4D4D4D4D4D4E4E4E4E4E0D
:404180004F4F4F4F4F4F5050505050515151515151525252525253535353535354545454545555555555565656565656575757575758585858585859595959595A5A5A5AEA
:4041C0005A5B5B5B5B5B5B5C5C5C5C5C5D5D5D5D5D5E5E5E5E5E5F5F5F5F5F5F606060606061616161616262626262636363636363646464646465656565656666666666AA
:40420000676767676767686868686869696969696A6A6A6A6A6B6B6B6B6B6C6C6C6C6C6D6D6D6D6D6D6E6E6E6E6E6F6F6F6F6F707070707071717171717272727272737356
:40424000737373747474747475757575757576767676767777777777787878787879797979797A7A7A7A7A7B7B7B7B7B7C7C7C7C7C7D7D7D7D7D7E7E7E7E7E7F7F7F7F7FF6
:4042800080848A8F94989EA2A8ACB2B6BCC0C6CAD0D5DADEE4E8EEF2F8FCF8F2EEE8E4DEDAD4D0CAC6C0BCB6B2ADA8A29E98948F8A84807A76706B66615D58534E49443EAB
:4042C00039342F2A25211C17120D0803080D12171C21252A2F34393E44494E53585D61666B70767AFB21F93FFB2109407CD91240FB2119407A6A1F407CD92240BBFD254050
:40430000FB2129403A462C407A6A2F405C4731407CD932409C6B3440BBFD3540DB8F3740FB2139401BB43A403A463C405AD83D407A6A3F404C7E40405C4741406C104240FD
:404340007CD942408CA243409C6B4440AC344540BBFD4540CBC64640DB8F4740EB584840FB21494083F9A200444E6E00FC291500D1572700DD34F50062DBC0003C999500FC
:40438000419043006351FE00BBDEAB00B761C5003A6E2400D24D42004906E00009EA2E001C92D100EB1DFE0029B11C00E83EA700F535820044BB2E009CE98400B426700025
:4043C000417E5F00D6913900538339009CF439008B5F840028F9BD00F81F3B00DEFF97000F980500112FEF000A5A8B006D1F6D00CF7E360009CB2700464FB7009E663F0045
:404400002DEA5F00BA277500E5EBC7003D7BF100F739070092528A00FB6BEA001FB15F00085D8D00300356007BFC4600F0AB6B0020BCCF0036F49A00E3A91D005E619100A6
:40444000081BE60085996500A0145F008D40680080D8FF0027734D0006063100CA561500C9A873007BE260006B8CC000020000000300000004000000060000000000000051
:4044800000000040FB21F93F000000002D44743E000000809846F83C0000006051CC783B00000080831BF0390000004020257A38000000802282E336000000001DF369351A
:4044C00043000000F8B500BFF8BC08BC9E4670474D000000C5060000F8B500BFF8BC08BC9E46704729000000F8440000C880FF1F90000000D00F0000000000007F000000AA
:4045000022E3CD3AFFFF00007F800000030000000000E02EC05D00001800000000366E01000000000000000000000000000000000000000000000000000000000000000087
:40454000C044000000000000000000000000000000000000000000000000000000000000000000000000000000000000000000000000000000000000000000000000000037
:40458000F080FF1F0000000000000000000000000000000000000000000000000000000000000000000000000000000000000000000000000000000000000000000000006D
:4045C00000000000000000000000000000000000000000000000000000000000000000000000000000000000000000000000000000000000000000000000000000000000BB
:40460000000000000000000000000000000000000000000000000000000000000000000000000000000000000000000000000000000000000000000000000000000000007A
:40464000000000000000000000000000000000000000000000000000000000000000000000000000000000000000000000000000000000000000000000000000000000003A
:4046800000000000000000000000000000000000000000000000000000000000000000000000000000000000000000000000000000000000000000000000000000000000FA
:020000040003F7
:0200000480007A
:40000000015A00400164004002650040010701405408014031090140011501404F1801404B190140521A01403F1B01400440014002410140024201400443014002470140EC
:400040000348014001490140044C0140094D014004500140025101409F0188388872890FE602011302010360054A0714080209030D031001120613031407152517181B0353
:400080001C072406257C2806297C2A012C042F033170330C3607370354185604580459045B045C115D105F01860387158C1C8D2A8E028F04900C92119503970498109933F6
:4000C0009A0C9B0C9C099E10A010A308A814A940AD33AF04B140B330B41FB50FB908BB20BF05C003C540C9FFCA07CBFFCC40CD20CEF0CF05D008D804D904DA04DC11DD0112
:40010000DF01E040E1A8E240E320004405200680084209200E420F10108816211710180419101F4021342201242025052742284229922D402E802F283124350836013710B0
:4001400038483D0A3E403F1041044880500453045F026401661067408740C055C2BBC4EACA7DCCE6CEFAD002D680D8B0EC1000030210030404010501062008020A200C0847
:400180001003120C140F180F1B021C0C1E032203230424042702280C29012D01300F31013304350236303A023E403F14402541064204440145C046E0480A49FF4AFF4BFF54
:4001C0004C624DA04EF04F41500C56025711580459045A045B045C115D115F016640670269106A306B106D106E106F1289018E0190019802A801B003B301B802BF04D4010A
:40020000D804D904DB04DC01DD10DF010040042005080601074008020B080E4A0F1011101680172819021D811E402204250826022704281029042C602F4A36203B203E0419
:400240003F02444045A0461047044D404E024F12542058105A885B025E206E046F2A752076297728880189088D21902891209388944095409640971098029A809B409C01E0
:400280009DAE9E319F10A080A408A601A728B201C0F1C2FAC472CAF0CC20CEC4D0B0D230D62F0206070709030B0C0C060D180E010F071B011E031F102202231826012A0568
:4002C0002D032F1C311E360737013A803B0A3F4040234105450C46E0470B481949FF4AFF4BFF4EF04F44500C580459045A045C115D015F0166C06A406B0280278104821821
:400300008404850286408808890F8C109301943F99069A049B099C3C9E02A106A203A309A418A83CA906AA01AD09AF06B220B307B440B508B61FB920BA80BB08BE04D80481
:40034000D904DC11DF01004001020509060307080A010E060F10108011141620171119801A011E261F402040224023102624271029822E602F4030A0360237113848393C5F
:400380003E0A3F10411448204984500853108908900891209240944095109680973099039A299B089D8C9F10A080A202A408A635B312C0F9C2E1C47ECAB9CCACCEEED0064A
:4003C000D208EC1032203D80CC10CE20A540A620A540A6208620A540A620E6403020CC082550A540C820B510A004A420B004E804104074048840A004B420C408DE04E201B5
:40040000EC0800020C0210021C020003100200008080000040000000800040808000800000000000000B0B000000000000FEFE0000000000000000000000010000000000E0
:40044000000000000000000000000000000000000000000000000000000000000000000000000000000000000000000000000000000000000000000000000000000000007C
:40048000000000000000000000000000000000000000000000000000000000000000000000000000000000000000000000000000000000000000000000000000000000003C
:4004C00000000000000000000000000000000000000000000000000000000000000000000000000000000000000000000000000000000000000000000000000000000000FC
:4005000000000000000000000000000000000000000000000000000000000000000000000000000000000000000000000000000000000000000000000000000000000000BB
:0200000490006A
:0400000000004005B7
:0200000490105A
:04000000BC90ACAF55
:0200000490303A
:0200000016FAEE
:0200000490402A
:4000000000000000000000000000000000000000000000000000000000000000000000000000000000000000000000000000000000000000000000000000000000000000C0
:400040000000000000000000000000000000000000000000000000000000000000000000000000000000000000000000000000000000000000000000000000000000000080
:400080000000000000000000000000000000000000000000000000000000000000000000000000000000000000000000000000000000000000000000000000000000000040
:4000C0000000000000000000000000000000000000000000000000000000000000000000000000000000000000000000000000000000000000000000000000000000000000
:0200000490501A
:0C00000000012E16106900012E34276349
:00000001FF